:020000040800F2
:100000000000012025320008CB2F0008CD2F00086A
:10001000CF2F0008D12F0008D32F000800000000C8
:10002000000000000000000000000000D52F0008C4
:10003000D72F000800000000D92F0008DB2F000890
:1000400075320008753200087532000875320008F4
:1000500075320008DF2F000875320008753200087D
:10006000753200087532000875320008E12F00086B
:10007000ED2F00087532000875320008753200084F
:1000800075320008753200087532000875320008B4
:100090000000000075320008F92F000875320008D2
:1000A0000D3000081930000875320008753200085C
:1000B0007532000875320008753200087532000884
:1000C0007532000875320008753200087532000874
:1000D00075320008753200081D30000875320008BE
:1000E0007532000875320008753200087532000854
:1000F00075320008000000000000000075320008A2
:100100007532000875320008753200087532000833
:100110007532000875320008753200087532000823
:100120007532000875320008753200087532000813
:08013000753200087532000869
:1001380010B5054C237833B9044B13B10448AFF319
:1001480000800123237010BD6C0F00200000000008
:1001580050C7000808B5034B1BB103490348AFF368
:10016800008008BD00000000700F002050C7000884
:10017800034613F8012B002AFBD1181A01387047DF
:1001880080F0004002E000BF81F0004142001FBF44
:100198005FEA410392EA030F7FEA226C7FEA236C4D
:1001A8006AD04FEA1262D2EB1363C1BFD218414042
:1001B80048404140B8BF5B42192B88BF704710F0D8
:1001C800004F40F4000020F07F4018BF404211F07B
:1001D800004F41F4000121F07F4118BF494292EAE3
:1001E800030F3FD0A2F1010241FA03FC10EB0C000F
:1001F800C3F1200301FA03F100F0004302D549429C
:1002080060EB4000B0F5000F13D3B0F1807F06D348
:1002180040084FEA310102F10102FE2A51D2B1F140
:10022800004F40EBC25008BF20F0010040EA030035
:100238007047490040EB0000013A28BFB0F5000FB5
:10024800EDD2B0FA80FCACF1080CB2EB0C0200FA6B
:100258000CF0AABF00EBC25052421843BCBFD040BA
:100268001843704792F0000F81F4000106BF80F434
:1002780000000132013BB5E74FEA41037FEA226CF7
:1002880018BF7FEA236C21D092EA030F04D092F0C2
:10029800000F08BF0846704790EA010F1CBF0020F6
:1002A800704712F07F4F04D1400028BF40F0004053
:1002B800704712F100723CBF00F50000704700F073
:1002C800004343F0FE4040F4000070477FEA22629A
:1002D80016BF08467FEA23630146420206BF5FEA6B
:1002E800412390EA010F40F4800070474FF000036B
:1002F80004E000BF10F0004348BF40425FEA000C32
:1003080008BF704743F0964301464FF000001CE0D9
:1003180050EA010208BF70474FF000030AE000BF2F
:1003280050EA010208BF704711F0004302D540426D
:1003380061EB41015FEA010C02BF844601460020DF
:1003480043F0B64308BFA3F18053A3F50003BCFAFA
:100358008CF2083AA3EBC25310DB01FA02FC6344A7
:1003680000FA02FCC2F12002BCF1004F20FA02F2AE
:1003780043EB020008BF20F00100704702F12002A1
:1003880001FA02FCC2F1200250EA4C0021FA02F202
:1003980043EB020008BF20EADC7070474FF0FF0C07
:1003A8001CEAD0521EBF1CEAD15392EA0C0F93EA02
:1003B8000C0F6FD01A4480EA010C400218BF5FEAA4
:1003C80041211ED04FF0006343EA501043EA511117
:1003D800A0FB01310CF00040B1F5000F3EBF490011
:1003E80041EAD3715B0040EA010062F17F02FD2A15
:1003F8001DD8B3F1004F40EBC25008BF20F00100F8
:10040800704790F0000F0CF0004C08BF49024CEA0E
:10041800502040EA51207F3AC2BFD2F1FF0340EAA0
:10042800C250704740F400004FF00003013A5DDC11
:1004380012F1190FDCBF00F000407047C2F1000252
:10044800410021FA02F1C2F1200200FA02FC5FEA3F
:10045800310040F1000053EA4C0308BF20EADC7089
:10046800704792F0000F00F0004C02BF400010F4FB
:10047800000F013AF9D040EA0C0093F0000F01F0A8
:10048800004C02BF490011F4000F013BF9D041EACA
:100498000C018FE70CEAD15392EA0C0F18BF93EACC
:1004A8000C0F0AD030F0004C18BF31F0004CD8D1F6
:1004B80080EA010000F00040704790F0000F17BF7D
:1004C80090F0004F084691F0000F91F0004F14D0C3
:1004D80092EA0C0F01D142020FD193EA0C0F03D11B
:1004E8004B0218BF084608D180EA010000F000401E
:1004F80040F0FE4040F40000704740F0FE4040F4F9
:10050800400070474FF0FF0C1CEAD0521EBF1CEA97
:10051800D15392EA0C0F93EA0C0F69D0A2EB0302B5
:1005280080EA010C49024FEA402037D04FF080534F
:1005380043EA111143EA10130CF000408B4238BF14
:100548005B0042F17D024FF4000C8B4224BF5B1A22
:1005580040EA0C00B3EB510F24BFA3EB510340EA70
:100568005C00B3EB910F24BFA3EB910340EA9C001E
:10057800B3EBD10F24BFA3EBD10340EADC001B018E
:1005880018BF5FEA1C1CE0D1FD2A3FF650AF8B4232
:1005980040EBC25008BF20F0010070470CF0004C3F
:1005A8004CEA50207F32C2BFD2F1FF0340EAC2506A
:1005B800704740F400004FF00003013A37E792F02B
:1005C800000F00F0004C02BF400010F4000F013A89
:1005D800F9D040EA0C0093F0000F01F0004C02BF84
:1005E800490011F4000F013BF9D041EA0C0195E7ED
:1005F8000CEAD15392EA0C0F08D142027FF47DAF86
:1006080093EA0C0F7FF470AF084676E793EA0C0F75
:1006180004D14B023FF44CAF08466EE730F0004C73
:1006280018BF31F0004CCAD130F000427FF45CAF03
:1006380031F000437FF43CAF5FE700BF4FF0FF3C71
:1006480006E000BF4FF0010C02E000BF4FF0010CC4
:100658004DF804CD4FEA40024FEA41037FEA226C8D
:1006680018BF7FEA236C11D001B052EA530C18BFAF
:1006780090EA010F58BFB2EB030088BFC81738BF14
:100688006FEAE17018BF40F0010070477FEA226C02
:1006980002D15FEA402C05D17FEA236CE4D15FEAFE
:1006A800412CE1D05DF8040B704700BF8446084632
:1006B8006146FFE70FB5FFF7C9FF002848BF10F1F3
:1006C800000F0FBD4DF808EDFFF7F4FF0CBF012038
:1006D80000205DF808FB00BF4DF808EDFFF7EAFFC2
:1006E80034BF012000205DF808FB00BF4DF808ED7D
:1006F800FFF7E0FF94BF012000205DF808FB00BF72
:100708004DF808EDFFF7D2FF94BF012000205DF8F7
:1007180008FB00BF4DF808EDFFF7C8FF34BF012004
:1007280000205DF808FB00BF4FEA4002B2F1FE4F1F
:100738000FD34FF09E03B3EB12620DD94FEA00239B
:1007480043F0004310F0004F23FA02F018BF404274
:1007580070474FF00000704712F1610F01D142025B
:1007680005D110F0004008BF6FF0004070474FF00F
:100778000000704753B94AB9002908BF00281CBFB8
:100788004FF0FF314FF0FF3000F0CEBAADF1080C5A
:100798006DE904CE00F03AF8DDF804E0DDE9022363
:1007A80004B0704710B500210446FFF795FF20B943
:1007B8002046BDE8104000F009B804F1004000F000
:1007C80005F8404261EB410110BD00BFD0B500F013
:1007D80011FC0C4B002206460F4600F07BF900F096
:1007E80061FC044600F0E4FB074B002200F072F9BC
:1007F80002460B463046394600F09CFA00F052FC9F
:100808002146D0BD0000F03D0000F0412DE9F04741
:10081800089E0D4604460F46002B4AD18A4294464C
:1008280065D9B2FA82F343B102FA03FCC3F120029C
:100838009F4020FA02F217439C404FEA1C4E1FFAD1
:100848008CF5B7FBFEF1220C0EFB117742EA07424A
:1008580001FB05F090420AD91CEB020201F1FF37B7
:1008680080F01B81904240F2188102396244121ACA
:10087800A4B2B2FBFEF00EFB102244EA024400FBD5
:1008880005F5A5420AD91CEB040400F1FF3280F0FB
:100898000681A54240F203816444023840EA0140DF
:1008A800641B00211EB1DC400023C6E90043BDE8FB
:1008B800F0878B4208D9002E00F0EC800021C6E9B1
:1008C80000050846BDE8F087B3FA83F1002949D14D
:1008D800AB4202D3824200F2F780841A65EB03022E
:1008E80001201746002EE2D0C6E90047DFE702B92B
:1008F800FFDEB2FA82F3002B40F08F808A1A4FEAAB
:100908001C471FFA8CFE0121B2FBF7F507FB1520E7
:10091800220C42EA00420EFB05F0904208D91CEB7B
:10092800020205F1FF3802D2904200F2CA80454621
:10093800121AA4B2B2FBF7F007FB102244EA0244F1
:100948000EFB00FEA64508D91CEB040400F1FF329B
:1009580002D2A64500F2BA801046A4EB0E0440EA83
:1009680005409FE7C1F120078B4022FA07FC4CEABB
:10097800030C05FA01F420FA07F3FD40234300FABB
:1009880001F94FEA1C401FFA8CFEB5FBF0F81C0C6D
:1009980000FB185544EA054408FB0EF5A54202FA87
:1009A80001F20BD91CEB040408F1FF3A80F08780B0
:1009B800A54240F28480A8F102086444641B9DB2F9
:1009C800B4FBF0F300FB134445EA044403FB0EFEBA
:1009D800A64508D91CEB040403F1FF306BD2A645E9
:1009E80069D9023B644443EA0840A0FB0283A4EBB4
:1009F8000E049C42C6461D4655D352D056B1B9EB9B
:100A08000E0364EB050404FA07F7CB40CC401F4300
:100A1800C6E900740021BDE8F087C3F1200102FA9D
:100A280003FC20FA01F225FA01F19D402A434FEA1E
:100A38001C471FFA8CFEB1FBF7F007FB1015110CD1
:100A480041EA054100FB0EF58D4204FA03F408D98A
:100A58001CEB010100F1FF382FD28D422DD902384D
:100A68006144491B92B2B1FBF7F507FB151142EA45
:100A7800014205FB0EF1914208D91CEB020205F177
:100A8800FF3816D2914214D9023D6244521A45EAFF
:100A9800004139E73146304609E73946E7E610466E
:100AA800FCE6C145AAD2B8EB020E63EB0C0501388F
:100AB800A4E74546EAE7034695E74046D1E7D0462E
:100AC8007CE7023D624433E708460BE7644402389A
:100AD80043E700BF70B54FF0FF0C4CF4E06C1CEA24
:100AE80011541DBF1CEA135594EA0C0F95EA0C0F1C
:100AF80000F0DEF82C4481EA030621EA4C5123EA8F
:100B08004C5350EA013518BF52EA033541F48011BD
:100B180043F4801338D0A0FB02CE4FF00005E1FB70
:100B280002E506F00042E0FB03E54FF00006E1FBBA
:100B380003569CF0000F18BF4EF0010EA4F1FF04FD
:100B4800B6F5007F64F5407404D25FEA4E0E6D413D
:100B580046EB060642EAC62141EA55514FEAC5204E
:100B680040EA5E504FEACE2EB4F1FD0C88BFBCF5CA
:100B7800E06F1ED8BEF1004F08BF5FEA500E50F17B
:100B8800000041EB045170BD06F0004646EA010141
:100B980040EA020081EA0301B4EB5C04C2BFD4EB73
:100BA8000C0541EA045170BD41F480114FF0000E6C
:100BB800013C00F3AB8014F1360FDEBF002001F0DA
:100BC800004170BDC4F10004203C35DA0C341BDC54
:100BD80004F11404C4F1200500FA05F320FA04F026
:100BE80001FA05F240EA020001F0004221F000415A
:100BF80010EBD37021FA04F642EB06015EEA430ECD
:100C080008BF20EAD37070BDC4F10C04C4F12005FC
:100C180000FA04F320FA05F001FA04F240EA0200AF
:100C280001F0004110EBD37041F100015EEA430E80
:100C380008BF20EAD37070BDC4F1200500FA05F2A0
:100C48004EEA020E20FA04F301FA05F243EA02031F
:100C580021FA04F001F0004121FA04F220EA02002E
:100C680000EBD3705EEA430E08BF20EAD37070BD74
:100C780094F0000F0FD101F00046400041EB010154
:100C880011F4801F08BF013CF7D041EA060195F036
:100C9800000F18BF704703F00046520043EB0303F0
:100CA80013F4801F08BF013DF7D043EA06037047DD
:100CB80094EA0C0F0CEA135518BF95EA0C0F0CD0E8
:100CC80050EA410618BF52EA4306D1D181EA03012E
:100CD80001F000414FF0000070BD50EA410606BF28
:100CE8001046194652EA430619D094EA0C0F02D16D
:100CF80050EA013613D195EA0C0F05D152EA0336B2
:100D08001CBF104619460AD181EA030101F00041CF
:100D180041F0FE4141F470014FF0000070BD41F018
:100D2800FE4141F4780170BD704700BF81F0004179
:100D380002E000BF83F0004330B54FEA41044FEAB8
:100D4800430594EA050F08BF90EA020F1FBF54EA53
:100D5800000C55EA020C7FEA645C7FEA655C00F0EF
:100D6800E2804FEA5454D4EB5555B8BF6D420CDDC0
:100D78002C4480EA020281EA030382EA000083EA43
:100D8800010180EA020281EA0303362D88BF30BDE3
:100D980011F0004F4FEA01314FF4801C4CEA113139
:100DA80002D0404261EB410113F0004F4FEA033398
:100DB8004CEA133302D0524263EB430394EA050F23
:100DC80000F0A780A4F10104D5F1200E0DDB02FA92
:100DD8000EFC22FA05F2801841F1000103FA0EF226
:100DE800801843FA05F359410EE0A5F120050EF1EC
:100DF800200E012A03FA0EFC28BF4CF0020C43FA1D
:100E080005F3C01851EBE37101F0004507D54FF029
:100E1800000EDCF1000C7EEB00006EEB0101B1F579
:100E2800801F1BD3B1F5001F0CD349085FEA3000BF
:100E38004FEA3C0C04F101044FEA445212F5800FCA
:100E480080F09A80BCF1004F08BF5FEA500C50F167
:100E5800000041EB045141EA050130BD5FEA4C0C4A
:100E6800404141EB0101013C28BFB1F5801FE9D2A7
:100E780091F0000F04BF01460020B1FA81F308BFCA
:100E88002033A3F10B03B3F120020CDA0C3208DD96
:100E980002F1140CC2F10C0201FA0CF021FA02F171
:100EA8000CE002F11402D8BFC2F1200C01FA02F1E1
:100EB80020FA0CFCDCBF41EA0C019040E41AA2BF06
:100EC80001EB0451294330BD6FEA04041F3C1CDACE
:100ED8000C340EDC04F11404C4F1200220FA04F0EE
:100EE80001FA02F340EA030021FA04F345EA030198
:100EF80030BDC4F10C04C4F1200220FA02F001FA5A
:100F080004F340EA0300294630BD21FA04F02946DB
:100F180030BD94F0000F83F4801306BF81F4801174
:100F28000134013D4EE77FEA645C18BF7FEA655CE7
:100F380029D094EA050F08BF90EA020F05D054EAB9
:100F4800000C04BF1946104630BD91EA030F1EBFBE
:100F58000021002030BD5FEA545C05D140004941C2
:100F680028BF41F0004130BD14F580043CBF01F5B5
:100F7800801130BD01F0004545F0FE4141F470019B
:100F88004FF0000030BD7FEA645C1ABF1946104676
:100F98007FEA655C1CBF0B46024650EA013406BF77
:100FA80052EA033591EA030F41F4002130BD00BF36
:100FB80090F0000F04BF0021704730B54FF48064F3
:100FC80004F132044FF000054FF0000150E700BF74
:100FD80090F0000F04BF0021704730B54FF48064D3
:100FE80004F1320410F0004548BF40424FF00001C0
:100FF8003EE700BF42004FEAE2014FEA31014FEA03
:1010080002701FBF12F07F4393F07F4F81F0605151
:10101800704732F07F4208BF704793F07F4F04BF9C
:1010280041F40021704730B54FF4607401F0004579
:1010380021F000411CE700BF50EA010208BF7047D9
:1010480030B54FF000050AE050EA010208BF7047CA
:1010580030B511F0004502D5404261EB41014FF433
:10106800806404F132045FEA915C3FF4D8AE4FF03B
:1010780003025FEADC0C18BF03325FEADC0C18BF1E
:10108800033202EBDC02C2F1200300FA03FC20FA6F
:1010980002F001FA03FE40EA0E0021FA02F11444BC
:1010A800BDE600BF4A0011D212F5001211D20DD5CB
:1010B8006FF47873B3EB62520ED44FEAC12343F056
:1010C800004343EA505323FA02F070474FF0000000
:1010D800704750EA013002D14FF0FF3070474FF0AF
:1010E800000070471FB51A481A4A4FF4802300249D
:1010F800C0E9002304234FF48062C0E90922436158
:10110800022201230483CDE90144C0E90244C0E975
:101118000D23039404618476C36180F8204080F82D
:101128002C30046380F83C40C46402F007F908B12D
:1011380001F0C4FD084B0648039401A9CDE9013428
:1011480002F04CFA08B101F0B9FD04B010BD00BFBF
:10115800880F0020002401400001002070B596B0DF
:1011680005461422002103A80BF0C2FA38220021F8
:1011780008A80BF0BDFA2A68254B9A4245D14FF4CE
:101188008043089308A84FF04053139303F06CFC76
:1011980008B101F093FD4FF0B04300261A6E1D4CC4
:1011A80042F400721A661A6E02F400720292029AEF
:1011B800DA6C42F00102DA64DB6C059603F0010395
:1011C8000193019B4FF48052032303A94FF09040F1
:1011D800CDE9032302F0B0FE0F49266205238020E3
:1011E800C4E900134FF48073C4E904034FF4806C1E
:1011F80020232046C4E90266C4E906C302F022FDA2
:1012080008B101F05BFD2C65A56216B070BD00BF8A
:1012180000240140EC0F002008000240B0F5FA6FEE
:1012280022DAB0F5917F11DA242883B206DC03EBC9
:101238008302C3EBC203DB0018B2704703EB43031E
:1012480042F6A01000EBC30000B27047B0F5527F21
:10125800B5BF00EB800000F5115000F57C503F3021
:10126800B4BF26304000EFE742F2070398420CDC97
:1012780040F6D173984203DC00F5A1404E30E3E715
:1012880045F6B70303EB6003D6E743F637239842E6
:1012980004DC46F2B90303EBA003CDE7C01000F568
:1012A800D040D1E708B50C4804F0C0FA20B10B488B
:1012B80001F0FAFB01F002FD09490A484FF4FA521D
:1012C80002F0F0FA30B1084801F0EEFBBDE8084042
:1012D80001F0F4BC08BD00BF9CEC00209CC70008CE
:1012E8004E100020880F0020BEC7000808B50A4825
:1012F80002F064FB20B1094801F0D6FB01F0DEFCE6
:10130800074804F0B5FA30B1064801F0CDFBBDE856
:10131800084001F0D3BC08BD880F0020DDC70008D5
:101328009CEC0020FCC7000808B5FFF7DFFF4FF072
:1013380090400122102102F0ABFEBDE808400148B0
:1013480001F0B2BB1FC8000810B500F00102044646
:101358004FF480614FF0904002F09AFEC4F34002CF
:101368004FF40061BDE810404FF0904002F090BE8D
:1013780008B50E4801F098FB002210214FF090406C
:1013880002F086FE0A4801F08FFB642001F0BEFFE0
:10139800084801F089FBFFF785FF074801F084FB47
:1013A800BDE808400320FFF7CFBF00BF32C80008E0
:1013B80043C8000855C8000860C80008F8B50E46BC
:1013C800154601F071FB0A480A4F01F06DFB002435
:1013D800AC4204DBBDE8F840074801F065BB305774
:1013E80001F06CFB384601F05FFB0134F0E700BF09
:1013F800F8CF00086EC8000870C800082DE9F04151
:101408000026ADF5426D0027CDE9006708ADB14F64
:101418000C462E46011F4FF0082C00F57F7051F83E
:10142800043FD3FA0CF357F8048B934023F00F13BF
:1014380018FB33FE13FB08F34EF3CF3EC3F3CF3351
:1014480043EA0E43884246F8043BE8D101230022D0
:101458004FF4007102A805F059FF29460DF5846282
:1014680002A805F0B9FE12260DF58461886C4000CB
:1014780020F0011020FB00F00014FFF7CFFEA88435
:10148800C86C400020F0011020FB00F00014FFF7AA
:10149800C5FEE884086D400020F0011020FB00F034
:1014A8000014FFF7BBFE2885486D400020F00110AE
:1014B80020FB00F00014FFF7B1FE0436B62E688555
:1014C80001F1100105F10805D0D1834D6B4629685B
:1014D80011A8042205F090FFDDE900329B0E43EAD3
:1014E8008213237069686B4612A8052205F084FFF1
:1014F800DDE900329B0E43EA82136370A9686B46EC
:1015080013A8062205F078FFDDE900329B0E43EAB6
:101518008213A370E9686B460DF15200072205F0AB
:101528006BFFDDE900329B0E43EA8213E370296901
:101538006B4616A8082205F05FFFDDE900329B0E16
:1015480043EA8213237169696B4618A8082205F0DB
:1015580053FFDDE900329B0E43EA82136371A969E8
:101568006B461AA8092205F047FFDDE900329B0EF9
:1015780043EA8213A371E9696B461CA80B2205F0A4
:101588003BFFDDE900329B0E43EA8213E371296ACF
:101598006B460DF17A000C2205F02EFFDDE90032D2
:1015A8009B0E43EA82132372696A6B460DF186002B
:1015B8000D2205F021FFDDE900329B0E43EA82137C
:1015C8006372A96A6B460DF192000F2205F014FFB1
:1015D800DDE900329B0E43EA8213A372E96A6B4687
:1015E80028A8112205F008FFDDE900329B0E43EA26
:1015F8008213E372296B6B462CA8132205F0FCFEBC
:10160800DDE900329B0E43EA82132373696B6B4654
:101618000DF1C200152205F0EFFEDDE900329B0E48
:1016280043EA82136373A96B6B460DF1D600182247
:1016380005F0E2FEDDE900329B0E43EA8213A37354
:10164800E96B6B463BA81B2205F0D6FEDDE90032AC
:101658009B0E43EA8213E373296C6B460DF5837086
:101668001E2205F0C9FEDDE900329B0E43EA821313
:101678002374696C6B460DF59170222205F0BCFE4F
:10168800DDE900329B0E43EA82136374A96C6B4652
:101698000DF5A170262205F0AFFEDDE900329B0EA4
:1016A80043EA8213A374E96C6B460DF5B3702A22E2
:1016B80005F0A2FEDDE900329B0E43EA82130748DB
:1016C800E37414222146FFF779FE0DF5426DBDE85B
:1016D800F08100BFBAC800080000002074C80008E4
:1016E800F7B540F67E3101AB0DF10202054605F073
:1016F80021FDBDF90230D74AD74C43EA630343EAD8
:10170800A30343EA231343EA232343EAE37353433C
:10171800DB0ED24A2168D25CC2F1100292B2ADF857
:1017280002202846D2B2FFF769FE9DF802206168C0
:1017380005F50770FFF762FE9DF80220A16805F520
:101748008760FFF75BFE9DF80220E16805F25460B0
:10175800FFF754FE9DF80220216905F50760FFF7A1
:101768004DFE9DF80220616905F68C20FFF746FEC4
:101778009DF80220A16905F6A840FFF73FFE9DF8F5
:101788000220E16905F6C460FFF738FE9DF80220E3
:10179800216A05F58750FFF731FE05F597509DF84A
:1017A8000220616A1C30FFF729FE25686368A1687A
:1017B80095F9002093F9003091F900101344194469
:1017C800E36893F900300B44216991F9001019443A
:1017D800636993F900300B44A16991F90010194429
:1017E800E36993F900300B44216A91F90010194418
:1017F800636A93F900300B440A201BB293FBF0F3A1
:10180800D21A5200633A2A70616891F90020D21AFC
:101818005200633A0A70A16891F90020D21A520066
:10182800633A0A70E16891F90020D21A5200633ACB
:101838000A70216991F90020D21A5200633A0A709D
:10184800616991F90020D21A5200633A0A70A169BD
:1018580091F90020D21A5200633A0A70E16991F9AD
:101868000020D21A5200633A0A70216A91F90020C6
:10187800D21A5200633A0A70616A91F90020D31AA9
:101888005B00633B0B7025686368A16895F90120CC
:1018980093F9013091F9011013441944E36893F95D
:1018A80001300B44216991F901101944636993F9D6
:1018B80001300B44A16991F901101944E36993F9C6
:1018C80001300B44216A91F901101944636A93F9B4
:1018D80001300B441BB293FBF0F3D21A5200633A67
:1018E8006A70616891F90120D21A5200633A4A700D
:1018F800A16891F90120D21A5200633A4A70E1684E
:1019080091F90120D21A5200633A4A70216991F97B
:101918000120D21A5200633A4A70616991F9012094
:10192800D21A5200633A4A70A16991F90120D21A79
:101938005200633A4A70E16991F90120D21A5200C3
:10194800633A4A70216A91F90120D21A5200633A27
:101958004A70616A91F90120D31A5B00633B4B70AE
:10196800256895F902206368A16893F9023091F916
:10197800021013441944E36893F902300B442169B7
:1019880091F902101944636993F902300B44A16973
:1019980091F902101944E36993F902300B44216A62
:1019A80091F902101944636A93F902300B441BB28F
:1019B80093FBF0F3D21A5200633AAA70616891F966
:1019C8000220D21A5200633A8A70A16891F9022063
:1019D800D21A5200633A8A70E16891F90220D21A49
:1019E8005200633A8A70216991F90220D21A520092
:1019F800633A8A70616991F90220D21A5200633AF7
:101A08008A70A16991F90220D21A5200633A8A7049
:101A1800E16991F90220D21A5200633A8A70216A68
:101A280091F90220D21A5200633A8A70616A91F9D8
:101A38000220D31A5B00633B8B7025686368A1683A
:101A480095F9032093F9033091F9031013441944CD
:101A580006E000BFDDACC4075000002099C80008AC
:101A6800E36893F903300B44216991F90310194491
:101A7800636993F903300B44A16991F90310194480
:101A8800E36993F903300B44216A91F9031019446F
:101A9800636A93F903300B441BB293FBF0F3D21A39
:101AA8005200633AEA70616891F90320D21A520031
:101AB800633ACA70A16891F90320D21A5200633AB6
:101AC800CA70E16891F90320D21A5200633ACA70C9
:101AD800216991F90320D21A5200633ACA706169E8
:101AE80091F90320D21A5200633ACA70A16991F998
:101AF8000320D21A5200633ACA70E16991F90320AF
:101B0800D21A5200633ACA70216A91F90320D21A94
:101B18005200633ACA70616A91F90320D31A5B00D4
:101B2800633BCB70216891F904206368A56893F939
:101B3800043095F9045013441D44E36893F90430C4
:101B48002B44256995F904501D44636993F90430C1
:101B58002B44A56995F904501D44E36993F90430B1
:101B68002B44256A95F904501D44636A93F904309F
:101B78002B441BB293FBF0F3D21A5200633A0A715A
:101B8800656895F90420D21A5200633A2A71A5684B
:101B980095F90420D21A5200633A2A71E56895F93A
:101BA8000420D21A5200633A2A71256995F9042053
:101BB800D21A5200633A2A71656995F90420D21A3B
:101BC8005200633A2A71A56995F90420D21A520085
:101BD800633A2A71E56995F90420D21A5200633AEA
:101BE8002A71256A95F90420D21A5200633A2A719B
:101BF800656A95F90420D31A5B00633B2B7163680F
:101C0800A56891F9052093F9053095F90550134415
:101C18001D44E36893F905302B44256995F905506F
:101C28001D44636993F905302B44A56995F905505E
:101C38001D44E36993F905302B44256A95F905504D
:101C48001D44636A93F905302B441BB293FBF0F3F0
:101C5800D21A5200633A4A71656895F90520D21A7A
:101C68005200633A6A71A56895F90520D21A5200A4
:101C7800633A6A71E56895F90520D21A5200633A09
:101C88006A71256995F90520D21A5200633A6A717A
:101C9800656995F90520D21A5200633A6A71A569F7
:101CA80095F90520D21A5200633A6A71E56995F9E7
:101CB8000520D21A5200633A6A71256A95F90520FF
:101CC800D21A5200633A6A71656A95F90520D31AE7
:101CD8005B00633B6B71636891F9062093F90630EA
:101CE800A56895F9065013441D44E36893F9063036
:101CF8002B44256995F906501D44636993F906300C
:101D08002B44A56995F906501D44E36993F90630FB
:101D18002B44256A95F906501D44636A93F90630E9
:101D28002B441BB293FBF0F3D21A5200633A8A7128
:101D3800656895F90620D21A5200633AAA71A56817
:101D480095F90620D21A5200633AAA71E56895F906
:101D58000620D21A5200633AAA71256995F906201D
:101D6800D21A5200633AAA71656995F90620D21A07
:101D78005200633AAA71A56995F90620D21A520051
:101D8800633AAA71E56995F90620D21A5200633AB6
:101D9800AA71256A95F90620D21A5200633AAA71E7
:101DA800656A95F90620D31A5B00633BAB716368DB
:101DB800A56891F9072093F9073095F9075013445E
:101DC8001D44E36893F907302B44256995F90750BA
:101DD8001D44636993F907302B44A56995F90750A9
:101DE8001D44E36993F907302B44256A95F9075098
:101DF8001D44636A93F907302B441BB293FBF0F33D
:101E0800D21A5200633ACA71656895F90720D21A46
:101E18005200633AEA71A56895F90720D21A520070
:101E2800633AEA71E56895F90720D21A5200633AD5
:101E3800EA71256995F90720D21A5200633AEA71C6
:101E4800656995F90720D21A5200633AEA71A569C3
:101E580095F90720D21A5200633AEA71E56995F9B3
:101E68000720D21A5200633AEA71256A95F90720C9
:101E7800D21A5200633AEA71656A95F90720D31AB3
:101E88005B00633BEB716268A66891F9085092F9B0
:101E9800083096F908602B441E44E36893F908302B
:101EA8003344266996F908601E44636993F908303B
:101EB8003344A66996F908601E44E36993F908302B
:101EC8003344266A96F908601E44636A93F9083019
:101ED80033441BB293FBF0F3ED1A6D00633D0D72B2
:101EE80092F90850ED1A6D00633D1572A66896F9CF
:101EF8000850ED1A6D00633D3572E66896F9085092
:101F0800ED1A6D00633D3572266996F90850ED1A91
:101F18006D00633D3572666996F90850ED1A6D00DB
:101F2800633D3572A66996F90850ED1A6D00633D58
:101F38003572E66996F90850ED1A6D00633D357201
:101F4800266A96F90850ED1A6D00633D3572666A87
:101F580096F90850EB1A5B00633B3372A66891F957
:101F6800095092F9093096F909602B441E44E36838
:101F780093F909303344266996F909601E44636968
:101F880093F909303344A66996F909601E44E36958
:101F980093F909303344266A96F909601E44636A46
:101FA80093F9093033441BB293FBF0F3ED1A6D003B
:101FB800633D4D7292F90950ED1A6D00633D5572FB
:101FC800A66896F90950ED1A6D00633D7572E668CA
:101FD80096F90950ED1A6D00633D7572266996F9F8
:101FE8000950ED1A6D00633D7572666996F90950DE
:101FF800ED1A6D00633D7572A66996F90950ED1AE0
:102008006D00633D7572E66996F90950ED1A6D0029
:10201800633D7572266A96F90950ED1A6D00633DA5
:102028007572666A96F90950EB1A5B00633B737226
:10203800A66891F90A5092F90A3096F90A602B4479
:102048001E44E36893F90A303344266996F90A6016
:102058001E44636993F90A303344A66996F90A6005
:102068001E44E36993F90A303344266A96F90A60F4
:102078001E44636A93F90A3033441BB293FBF0F3AE
:10208800ED1A6D00633D8D7292F90A50ED1A6D00DC
:10209800633D9572A66896F90A50ED1A6D00633D86
:1020A800B572E66896F90A50ED1A6D00633DB5728F
:1020B800266996F90A50ED1A6D00633DB572666996
:1020C80096F90A50ED1A6D00633DB572A66996F946
:1020D8000A50ED1A6D00633DB572E66996F90A502B
:1020E800ED1A6D00633DB572266A96F90A50ED1A2D
:1020F8006D00633DB572666A96F90A50EB1A5B008B
:10210800633BB372A66891F90B5092F90B3096F9BC
:102118000B602B441E44E36893F90B303344266963
:1021280096F90B601E44636993F90B303344A66932
:1021380096F90B601E44E36993F90B303344266A21
:1021480096F90B601E44636A93F90B3033441BB253
:1021580093FBF0F3ED1A6D00633DCD7292F90B001D
:10216800C01A40006338D072A56895F90B00C01AF0
:1021780040006338E872E56895F90B00C01A400022
:102188006338E872256995F90B00C01A4000633876
:10219800E872656995F90B00C01A40006338E87267
:1021A800A56995F90B00C01A40006338E872E56923
:1021B80095F90B00C01A40006338E872256A95F952
:1021C8000B00C01A40006338E872656A95F90B0085
:1021D800C31A5B00633BEB72A06891F90C5092F94B
:1021E8000C60E46890F90C3094F90C402E443344A8
:1021F8001C44DD4B1E6996F90C6026445C6994F911
:102208000C4034449E6996F90C602644DC6994F9C4
:102218000C4034441E6A96F90C6026445C6A94F9B2
:102228000C4034440A2724B294FBF7F42D1B6D00AC
:10223800633D0D7392F90C502D1B6D00633D1573B2
:1022480090F90C502D1B6D00633D0573DE6896F9FF
:102258000C502D1B6D00633D35731E6996F90C50AB
:102268002D1B6D00633D35735E6996F90C502D1B6F
:102278006D00633D35739E6996F90C502D1B6D00FA
:10228800633D3573DE6996F90C502D1B6D00633D77
:1022980035731E6A96F90C502D1B6D00633D35731E
:1022A8005E6A96F90C502C1B6400633C347391F9F8
:1022B8000D5092F90D4090F90D602C442644DC68CD
:1022C80094F90D4034441E6996F90D6026445C6902
:1022D80094F90D4034449E6996F90D602644DC69F2
:1022E80094F90D4034441E6A96F90D6026445C6AE0
:1022F80094F90D40344424B294FBF7F42D1B6D007F
:10230800633D4D7392F90D502D1B6D00633D557360
:1023180090F90D502D1B6D00633D4573DE6896F9ED
:102328000D502D1B6D00633D75731E6996F90D5098
:102338002D1B6D00633D75735E6996F90D502D1B5D
:102348006D00633D75739E6996F90D502D1B6D00E8
:10235800633D7573DE6996F90D502D1B6D00633D65
:1023680075731E6A96F90D502D1B6D00633D7573CC
:102378005E6A96F90D502C1B6400633C747391F9E6
:102388000E5092F90E4090F90E602C442644DC68F9
:1023980094F90E4034441E6996F90E6026445C692F
:1023A80094F90E4034449E6996F90E602644DC691F
:1023B80094F90E4034441E6A96F90E6026445C6A0D
:1023C80094F90E40344424B294FBF7F42D1B6D00AD
:1023D800633D8D7392F90E502D1B6D00633D95730F
:1023E80090F90E502D1B6D00633D8573DE6896F9DC
:1023F8000E502D1B6D00633DB5731E6996F90E5086
:102408002D1B6D00633DB5735E6996F90E502D1B4B
:102418006D00633DB5739E6996F90E502D1B6D00D6
:10242800633DB573DE6996F90E502D1B6D00633D53
:10243800B5731E6A96F90E502D1B6D00633DB5737A
:102448005E6A96F90E502C1B6400633CB47391F9D4
:102458000F5092F90F4090F90F602C442644DC6825
:1024680094F90F4034441E6996F90F6026445C695C
:1024780094F90F4034449E6996F90F602644DC694C
:1024880094F90F4034441E6A96F90F6026445C6A3A
:1024980094F90F40344424B294FBF7F42D1B6D00DB
:1024A800633DCD7392F90F502D1B6D00633DD573BD
:1024B80090F90F502D1B6D00633DC573DE6896F9CA
:1024C8000F502D1B6D00633DF5731E6996F90F5073
:1024D8002D1B6D00633DF5735E6996F90F502D1B3A
:1024E8006D00633DF5739E6996F90F502D1B6D00C5
:1024F800633DF573DE6996F90F502D1B6D00633D42
:10250800F5731E6A96F90F502D1B6D00633DF57328
:102518005E6A96F90F502C1B6400633CF473DD6807
:1025280091F9106092F910C090F9104095F910E0F7
:10253800B4446444A6441C6994F910C05C69F4442A
:1025480094F910E09C69E64494F910C0DC69F444FD
:1025580094F910E01C6AE64494F910C05C6A94F996
:102568001040F44402E000BF50000020644424B24C
:1025780094FBF7F4361B7600633E0E7492F91060F4
:10258800361B7600633E167490F91060361B760091
:10259800633E067495F91060361B7600633E2E7410
:1025A800D3F810C09CF91060361B7600633E8CF897
:1025B8001060D3F814C09CF91060361B7600633E97
:1025C8008CF81060D3F818C09CF91060361B7600A0
:1025D800633E8CF81060D3F81CC09CF91060361B61
:1025E8007600633E8CF81060D3F820C09CF9106028
:1025F800361B7600633E8CF81060D3F824C09CF933
:102608001060341B6400633C8CF8104091F9116031
:1026180092F911C090F9114095F911E0B44464445D
:10262800A6441C6994F911C05C69F44494F911E05A
:102638009C69E64494F911C0DC69F44494F911E00A
:102648001C6AE64494F911C05C6A94F91140F44498
:10265800644424B294FBF7F4361B7600633E4E7450
:1026680092F91160361B7600633E567490F911603A
:10267800361B7600633E467495F91160361B76006A
:10268800633E6E74D3F810C09CF91160361B760057
:10269800633E8CF81160D3F814C09CF91160361BA6
:1026A8007600633E8CF81160D3F818C09CF911606D
:1026B800361B7600633E8CF81160D3F81CC09CF979
:1026C8001160361B7600633E8CF81160D3F820C089
:1026D8009CF91160361B7600633E8CF81160D3F8C4
:1026E80024C09CF91160341B6400633C8CF81140D1
:1026F80091F9126092F912C090F9124095F912E01E
:10270800B4446444A6441C6994F912C05C69F44456
:1027180094F912E09C69E64494F912C0DC69F44427
:1027280094F912E01C6AE64494F912C05C6A94F9C0
:102738001240F444644424B294FBF7F4361B760048
:10274800633E8E7492F91260361B7600633E96746F
:1027580090F91260361B7600633E867495F9126014
:10276800361B7600633EAE74D3F810C09CF9126035
:10277800361B7600633E8CF81260D3F814C09CF9BF
:102788001260361B7600633E8CF81260D3F818C0CE
:102798009CF91260361B7600633E8CF81260D3F801
:1027A8001CC09CF91260361B7600633E8CF81260E0
:1027B800D3F820C09CF91260361B7600633E8CF873
:1027C8001260D3F824C09CF91260341B6400633C87
:1027D8008CF8124091F9136092F913C090F91340E4
:1027E80095F913E0B4446444A6441C6994F913C0F1
:1027F8005C69F44494F913E09C69E64494F913C0C5
:10280800DC69F44494F913E01C6AE64494F913C0B3
:102818005C6A94F91340F444644424B294FBF7F4DA
:10282800361B7600633ECE7492F91310091B4900DB
:102838006339D17490F91320121B5200633AC274A1
:1028480095F91320121B5200633AEA74196991F939
:102858001320121B5200633ACA74596991F9132064
:10286800121B5200633ACA74996991F91320121B1A
:102878005200633ACA74D96991F91320121B5200A5
:10288800633ACA74196A91F91320121B5200633A09
:10289800CA745A6A92F913301B1B5B00633BD374EA
:1028A80004F0AAFA03B0F0BD10B5084C237823B1A0
:1028B800074800F0F9F800F001FA012305486370B1
:1028C800FEF70EFF0023637010BD00BF4C10002000
:1028D8007BC800088E2F002010B5084C637823B100
:1028E800074800F0E1F800F0E9F9012305482370F2
:1028F800FEF7F6FE0023237010BD00BF4C10002029
:102908007BC800084E100020084808B5084B036033
:102918000023C0E9053383800123036201F0F2F844
:1029280018B1BDE8084000F0C9B908BD984F0020AB
:10293800003002400268084B9A4282B00AD14FF038
:10294800B0439A6C42F480529A649B6C03F48053AF
:102958000193019B02B07047003002404FF0B04332
:1029680007B59A6C42F004029A649A6C02F0040269
:102978000192019A9A6C42F001029A649B6C03F0EE
:1029880001030093002202210B20009B01F066F84E
:102998000B2001F095F8002202210C2001F05EF8CE
:1029A8000C2003B05DF804EB01F08AB84FF0B04397
:1029B80082B0DA6C0243DA64DB6C03400193019B5A
:1029C80002B0704770B586B01422002101A809F042
:1029D8008FFE0220FFF7EAFF2D4E0120FFF7E6FFEA
:1029E8000420FFF7E3FF4FF480713046002201F026
:1029F8004FFB012210214FF0904001F049FB0022CB
:102A08004FF442614FF0904001F042FB4022122304
:102A1800CDE90123042300240DEB030130460125F1
:102A28000593CDE9034401F087FA4FF4807301A9B7
:102A38003046CDE90135CDE9034401F07DFA01A91D
:102A48004FF09040CDE90154039401F075FA4FF42A
:102A5800436301A94FF09040CDE90135CDE9034426
:102A680001F06AFA4FF40413C021CDE901134FF0C5
:102A7800904001A9039501F05FFA22460221162031
:102A880000F0ECFF162001F01BF806B070BD00BF87
:102A9800000400488AB24FF6FF730146014803F06C
:102AA8007BBC00BF48ED002010B50446FDF760FB75
:102AB80001462046BDE81040FFF7ECBF30B5031EC5
:102AC80087B006D11448012107B0BDE83040FFF7B0
:102AD800E1BF4FF000028DF81420BCBF5B42012219
:102AE80014200A24B3FBF4F1054604FB1133013822
:102AF80030330DF800300B460029F3D132B105F11F
:102B080016036B442D22A81E03F8182C6844FFF7FF
:102B1800CBFF07B030BD00BF76CF000810B50C461C
:102B2800FFF7C2FF2046FFF7C9FFBDE81040014884
:102B3800FFF7BABFF8CF000810B5224C86B001A93C
:102B48000022204602F0E2F900226946204602F0FF
:102B580009FA1D4C1D48FFF7A7FF9DF80400FFF771
:102B6800ADFF2046FFF7A0FF9DF80500FFF7A6FF81
:102B78002046FFF799FF9DF80600FFF79FFF2046C4
:102B8800FFF792FF0298124CFFF798FF1148FFF7E2
:102B98008BFF9DF80200FFF791FF2046FFF784FFA7
:102BA8009DF80100FFF78AFF2046FFF77DFF9DF89B
:102BB800030000F5FA60FFF781FF0748FFF774FF8D
:102BC80006B010BD00EC00207FCF000878CF0008C9
:102BD80089CF000881CF0008F8CF00087FB5002210
:102BE80001A9094802F092F99DF804309DF80520E2
:102BF800029802EB03229DF8063003EB022300EB58
:102C0800032007B05DF804FB00EC002010B520217C
:102C180004464FF0904001F040FA204600F076FB61
:102C2800BDE8104020214FF0904001F036BA000076
:102C38004028F8B50AD11948FFF736FFFEF798FB88
:102C4800BDE8F8404FF4FA70FFF7E0BF80281FD1C5
:102C58001348144D144E154FFFF726FF1448FFF77D
:102C680023FFFEF761FB4FF4FA70FFF7CFFF11481F
:102C7800FFF71AFF00243388A34200DCF8BD55F89B
:102C8800040BFFF71BFF3846FFF70EFF0134F2E78E
:102C9800BDE8F8400848FFF707BF00BF8BCF000822
:102CA80096CF0008BC4F0020FCEB0020F8CF0008AE
:102CB800A1CF0008B1CF0008D7CF000808B572B679
:102CC800034C2046FFF7F0FE6420FFF79FFFF8E76C
:102CD800E0CF000800B59BB04822002108A809F001
:102CE80007FD1822002102A809F002FD01F0EAF907
:102CF8004FF0B0420120D2F8903023F01803C2F808
:102D08009030D2F8003423F4C06343F40073C2F85F
:102D18000034D2F8003403F4C0630193019B2423E8
:102D2800089381230B930023CDE91003B02208A850
:102D3800CDE9122301F0DAFA08B1FFF7BFFF4F23FC
:102D4800CDE90230CDE90400CDE90600022102A850
:102D580001F066FD0028F0D11BB05DF804FB00000F
:102D680008B500F0ABFAFFF7B5FF00F01BF8FFF766
:102D780029FEFFF7F3FD00F0B7F9FEF7B3F900F00D
:102D880051F900F081F803F045FCFFF7BDFD03F0B1
:102D9800FFFF0348FFF788FEC820FFF737FFFEE76D
:102DA800E9CF000810B586B01422002101A809F067
:102DB8009FFC1B481B4B0024C0E900347F22FF23E3
:102DC800C0E902234FF08043C0E90444C0E9073456
:102DD80000948461446201F079FF08B1FFF76EFF47
:102DE8000F48ADF80440012201A9CDE904448DF84B
:102DF800064001F0CBFF08B1FFF760FF0A4B084817
:102E080000930122694602F02BF808B1FFF756FF3C
:102E1800034802F0C7F808B1FFF750FF06B010BD2D
:102E280000EC0020002800400205140010B50446FC
:102E380090B03822002102A809F05AFC2268114BF0
:102E48009A421CD14FF48033029302A84FF4807346
:102E58000F9301F009FE08B1FFF730FF4FF0B043C0
:102E6800D3F8902042F40042C3F890209A6D42F4BF
:102E780080629A659B6D03F480630193019B10B097
:102E880010BD00BF002800401048114A08B54FF493
:102E98008273C0E9002300234FF4E0624FF400710D
:102EA800C0E902320822C0E906120721C0E904334A
:102EB800C0E90833C0E90B138362426302F099F951
:102EC80018B1BDE80840FFF7F9BE08BD38EC00208E
:102ED80000300140F0B5044689B01422002103A84F
:102EE80009F006FC22681D4B9A4234D14FF0B043DA
:102EF8001B481A6E42F480521A661A6E02F4805207
:102F08000292029ADA6C42F00202DA64DA6C02F097
:102F180002020192019ADA6C42F00102DA64DB6C77
:102F280003F001030093009B0224302301270326AA
:102F3800052503A9CDE90334CDE90576079500F009
:102F4800FBFF03A94FF09040CDE90344CDE9057696
:102F5800079500F0F1FF09B0F0BD00BF0030014057
:102F68000004004808B5002202216FF00B0000F0B1
:102F780075FD002202216FF00A0000F06FFD0022AB
:102F880002216FF0090000F069FD002202216FF0B4
:102F9800040000F063FD002202216FF0030000F03E
:102FA8005DFD002202216FF0010000F057FD0520B1
:102FB8000022022100F052FDBDE80840052000F083
:102FC8007FBDFEE7FEE7FEE7FEE7FEE770477047D6
:102FD800704700F089B97047014800F057BF00BF3B
:102FE800EC0F0020014800F051BF00BFE8EC0020C2
:102FF80008B5402001F05AF8BDE80840802001F0EB
:1030080055B80000014802F04CBC00BF9CEC002001
:10301800FFF7F8BF014802F075BE00BF48ED002079
:103028007047000000B5102289B00DEB02000021A6
:1030380009F05EFB1648174A0023C0E900239F22C7
:10304800CDE90133C0E90323C0E905330393836065
:1030580002F012FD08B1FFF731FE4FF480530C481F
:10306800049304A902F042FD08B1FFF727FE4FF4CC
:1030780000132022CDE901230548002301A9039369
:1030880002F0D6FD08B1FFF719FE09B05DF804FBA0
:103098009CEC0020002C014007B5124B02689A42B4
:1030A8001DD14FF0B04302211A6E42F400621A6635
:1030B8001B6E03F40063019300221820019B00F0AB
:1030C800CDFC182000F0FCFC00220221192000F0A1
:1030D800C5FC192003B05DF804EB00F0F1BC03B0A7
:1030E8005DF804FB002C014019481A4A08B54FF452
:1030F800E133C0E9002300230822C0E90233C0E914
:103108000523C0E908330361202383624FF4005389
:1031180003644FF00053436603F0C5F908B1FFF7A5
:10312800CDFD0B48002103F034FA08B1FFF7C6FDC6
:103138000748002103F04DFA08B1FFF7BFFD044826
:1031480003F007FA18B1BDE80840FFF7B7BD08BD9E
:1031580048ED00200080004070B596B00646142265
:10316800002103A809F0C4FA3822002108A809F0B0
:10317800BFFA3268264B9A4248D120230DEB030050
:10318800089301F071FC08B1FFF798FD4FF0B043C8
:103198000025DA6D1F4C42F00102DA65DA6D02F0A3
:1031A80001020292029ADA6C42F00102DA64DB6CE4
:1031B80003F001030193019B0C220223CDE90323B1
:1031C80003A908234FF090400793CDE9055500F077
:1031D800B3FE114925621623C4E900131023C4E97C
:1031E800023520468023C4E90435C4E9065500F0B9
:1031F80029FD08B1FFF762FD2620F46700220221AD
:10320800A66200F02BFC262000F05AFC16B070BD18
:1032180000800040E8EC00201C0002400D48854674
:10322800FFF7FEFE0C480D490D4A002302E0D45872
:10323800C4500433C4188C42F9D30A4A0A4C0023F8
:1032480001E013600432A242FBD309F059FAFFF7F8
:1032580087FDFEE70000012000000020B40B0020DD
:1032680020F501086C0F0020E0EE0020FEE70000CA
:1032780038B5104C237805460BB9012038BD01F04C
:1032880025F822784FF47A73B3FBF2F3B0FBF3F02E
:1032980000F024FC04460028EFD10F2DEDD802469B
:1032A80029464FF0FF3000F0D9FB034B20461D6044
:1032B800E4E700BF7C0000208000002010B5032058
:1032C80000F0BAFB01F002F8064B18600020FFF787
:1032D800CFFF044618B9FFF745FE204610BD01246C
:1032E800FBE700BF78000020034A044B11681B78F5
:1032F8000B441360704700BFDCED00207C00002009
:10330800014B1868704700BFDCED002038B5044653
:10331800FFF7F6FF631C1CBF054B1B78054618BF5B
:10332800E418FFF7EDFF431BA342FAD338BD00BFF3
:103338007C0000208068C0F380007047F7B5002348
:1033480001930446002800F0E980856D25B9FDF752
:1033580005FFE56584F8545023689A68D00040F169
:10336800A1809A68D10000F1B480A26D42F01002E9
:10337800A265E26D42F00102E26501251846FFF7F9
:10338800D9FFA26D02F01002024340F0C980A26D7D
:10339800206922F4817242F00202A2659A68D2077B
:1033A8005DD4226BA67E94F82CC0003A18BF012287
:1033B8001703D4E902120A43217E42EA8132617E70
:1033C80042EAC13242EA4632002842EA4C02B4BF1D
:1033D80020F000414FF400113A430A4394F82010BA
:1033E800012903D1002E76D142F48032616A21B1DD
:1033F800A66A01F4E07131430A43D968E66C21F406
:10340800FE3121F4FF711143D96094F83C206168C2
:10341800012A01F0404C4CEA060609D1D4E91027EC
:103428003A433243A66C324342EA0C0242F00106A8
:103438001F693E4A3A4032431A6121F00042B2F114
:10344800804F0CD0B1F1004F09D0394ED6F808277B
:1034580001F4701122F470120A43C6F808275A6959
:10346800666BA16B22F0070232435A615A6922F057
:10347800700242EA01125A61002835D19A6A62F054
:103488000F029A625B6903F007039E423CD1002356
:10349800E365A36D23F0030343F00103A365284606
:1034A80003B0F0BD9A68234922F0104222F01702B7
:1034B80042F080529A60204A1268B2FBF1F201325F
:1034C80052000192019A002A3FF44BAF019A013A47
:1034D800F7E7002552E7A16D41F02001A165E16DF4
:1034E80041F00101E16581E7B0F5001FCAD19A6A90
:1034F800E269013A92006FF00F0102F01C0201FA32
:1035080002F2216E0A43BCE7A36D23F0120343F0D5
:103518001003A365E36D43F00103E3650125BEE7EE
:10352800A36D43F01003A365F8E700BF02FCFF1F7B
:1035380000200140400D03007800002008B5806A93
:10354800FFF7CAF908BD7047806A08B5836D43F074
:1035580040038365C36D43F00403C365FFF7F3FFBE
:1035680008BD836A9A6D12F0500F10B59A6D29D173
:1035780042F400729A651A68D16811F4406F14D148
:10358800997E91B9116809070FD51046FFF7D2FE49
:1035980078B9516821F00C0151609A6D22F480725B
:1035A80022F0010242F001029A651846FFF77CF901
:1035B80010BD9A6D42F020029A65DA6D42F0010260
:1035C800DA65F2E7D20603D51846FFF7BCFFEFE746
:1035D8001B6DBDE810405B6B18470000F7B5002372
:1035E800019390F85430012B044600F0C58005681B
:1035F8000669012380F854302846FFF79BFE00280F
:1036080040F0B480D1E90020022826F0040300F03D
:103618008280B3F1004FC2F3110E13D1AB6A43EAB3
:103628000E03AB628B68686903EA022323F07C43CC
:1036380023F0FF0320EA02210B43002A6B6126DBFB
:10364800002055E0236E00F01F074FF00F0C0CFA16
:1036580007FC6FEA0C0623EA0C0CBEF1000F11D12F
:10366800C2F38463BB4043EA0C0323668008E36922
:1036780001309842D6D8A86AC2F38363BB4006409B
:103688003343CEE792FAA2F3B3FA83F3EAE73B496E
:103698003B48D1F80837824203F0E07519D11B0284
:1036A800CED4D1F8083723F0E0732B4343F400035A
:1036B800C1F80837334B1A68334BB2FBF3F20C23CB
:1036C80002FB03330193019B002BB9D0019B013B03
:1036D800F8E72E48824210D113F08070B0D1D1F8AB
:1036E800083723F0E0732B4343F08073C1F80837A1
:1036F800002384F8543003B0F0BD254882429FD19E
:1037080013F480009CD1D1F8083723F0E0732B43E1
:1037180043F48003EAE7B3F1004F01BFAB6AC2F399
:1037280011018B43AB62002A8ADA15481349824299
:10373800D1F8083709D1D1F8082703F0A07322F08F
:10374800E0721343C1F808377AE71048824204D17F
:10375800D1F8082703F44003F1E70D4882427FF4CB
:103768006FAFD1F8082703F0C073E8E7A26D42F005
:103778002002A2651846BBE70220BCE700200140F2
:10378800001000B078000020400D0300004000B891
:10379800002000B4026838B504461046FFF7CAFD99
:1037A80008B9002038BD9368990707D4936823F0B7
:1037B800004323F0170343F010039360FFF7A0FDC5
:1037C800054623689B685B07EBD5FFF799FD401B0F
:1037D8000228F6D923689B685A07F2D5A36D43F0EF
:1037E8001003A365E36D43F00103E3650120D9E706
:1037F80073B50023026801939368DD07044602D578
:10380800002002B070BD9168214B194209D0A36D08
:1038180043F01003A365E36D43F00103E365012062
:10382800EFE7936823F0004323F0170343F0010305
:103838009360184BD3F8083718021CD4637E012B09
:10384800DED0FFF75DFD144E054622681368DB07DE
:10385800D6D49368D9075FBF9368334043F0010318
:103868009360FFF74DFD401B0228EED923681B68C3
:10387800DA07EAD4CBE7094B094A1B68B3FBF2F332
:1038880001330193019B002BD8D0019B013BF8E742
:103898001700008000200140E8FFFF7F780000202B
:1038A800400D0300F8B50568044628460E4617463D
:1038B800FFF740FD002845D194F85430012B41D042
:1038C800012384F85430EB68DA070ED4AB68DB07C1
:1038D80007D5AB6823F0004323F0170343F0020336
:1038E800AB60EB6843F00103EB602046FFF780FF15
:1038F80038BBA56D144B216825F4706525F00105CA
:1039080045F48075A565256DE065EB620F4B2B636B
:103918000F4B6B631C230B6084F854004B6843F017
:1039280010034B6032463B464031284600F0FEF912
:103938002268936823F0004323F0170343F004033D
:103948009360F8BD0220FCE76B3500084535000898
:1039580051350008026838B5936891680446C8076D
:1039680001D4002038BD9907FBD4936803F0050300
:10397800012B19D1936823F0004323F0170343F078
:103988000203936003231360FFF7BAFC054623681C
:103998009B68DB07E5D5FFF7B3FC401B0228F6D987
:1039A80023689B68DA07F2D5A36D43F01003A3657B
:1039B800E36D43F00103E3650120D3E738B590F8E0
:1039C8005430012B054634D0012380F85430FFF7DA
:1039D800E1FE0446E0B9286D90F82530022B07D1A6
:1039E80000F0E8F9044618B1AB6D43F04003AB654D
:1039F8002A68536823F01003536028466CB9FFF710
:103A0800A9FF044660B12A68D36823F00103D36094
:103A1800002385F85430204638BDFFF79BFFF2E7B6
:103A2800AB6D23F4807323F0010343F00103AB650E
:103A3800E9E70224EFE700000749CA6822F4E062D8
:103A48000302120403F4E063120C134343F0BF6350
:103A580043F40033CB60704700ED00E0164B30B5FF
:103A6800DC68C4F30224C4F10703251D042B28BF16
:103A78000423062D4FF0FF358CBF033C002405FAC4
:103A880003F321EA0303A54022EA0502A340002824
:103A980043EA0203ACBF00F16040084A4FEA03134F
:103AA800B8BF00F00F00DBB2AABF00F561401354A5
:103AB80080F8003330BD00BF00ED00E014ED00E0F9
:103AC800002807DB044A4109012300F01F00834056
:103AD80042F82130704700BF00E100E00138B0F142
:103AE800807F0BD24FF0E023054A5861F02182F81D
:103AF80023100020072298611A617047012070473F
:103B080000ED00E010B5044608B9012010BD437F60
:103B180003F0FF0213B90277FEF70CFF0223637765
:103B28002379E3B92368134A5A619A6822F0180284
:103B38009A6062792368D2B94FF0FF321A619A68A5
:103B4800616922F060020A439A609A68A16922F0CA
:103B580080020A439A60012363770020D6E7D4E9FC
:103B68000212204600F008F80028E2D0CDE72269CA
:103B7800E4E700BFB71DC104CB0710B50CD51F2360
:103B8800013B1CD321FA03F4E407F9D5102A12D01B
:103B980004D83AB1082A10D001200BE0182AFBD12A
:103BA800062BF9D800684161836823F01803134392
:103BB8008360002010BD072BF3E70F2BF1E7002AE5
:103BC800EAD1EFE770B5D0E913456560446D14B1EB
:103BD800D0E916456560D0E9105404F01C060124AC
:103BE800B4406C60046863608368102B0BBFA260EC
:103BF800A160E160E26070BD0268416CD3B210B5AB
:103C0800083B1424B3FBF4F30B4CA24288BF0B4AC5
:103C180021F0030199BF01F1804202F502325218E6
:103C280007338264064AC26403F01F03012202FAC2
:103C380003F3036510BD00BF070402401C080240DF
:103C48008008024038B500285ED002682F4B9A429F
:103C58004FF014014CD82E4B1344B3FBF1F32D490C
:103C68009B00C0E91013022380F82530136805690A
:103C780023F4FF4323F070031360D0E90243234386
:103C88002B43456911682B4385692B43C5692B4331
:103C9800056A2B430B431360FFF7AEFFB4F5804F63
:103CA80004BF002343604268816C02F07F030B600D
:103CB800D0E91314013A032A4C6020D8164A174950
:103CC80081651A44013B9200012103F0030301FAC4
:103CD80003F300214265C3651160114A5364002350
:103CE8000122C36380F8243080F82520184638BDA7
:103CF8000C4B1344B3FBF1F30B499B00B1E70023D2
:103D0800C0E91533C365EAE70120F0E7070402407C
:103D1800F8FFFDBF000002403F820010400902404A
:103D280000090240F8FBFDBF0004024070B590F89E
:103D38002450012D04463BD090F825600125AE4261
:103D480080F824504FF000062CD1022580F8255029
:103D58000568C6632E6826F001062E60FFF732FF5D
:103D6800036BBBB12B6843F00E032B60A36C1A687E
:103D7800D20342BF1A6842F480721A60636D1BB1A5
:103D88001A6842F480721A602B6843F001032B60B2
:103D9800002070BD2B6823F004032B602B6843F0D0
:103DA8000A03E2E78023C36380F824602846F0E72B
:103DB8000220EEE7034640B190F82520022A06D0FB
:103DC8000422C263002280F8242001207047026880
:103DD800806C116821F00E011160016821F4807176
:103DE8000160116821F001011160D3E9100202F0AD
:103DF8001C0101228A404260D3E9132151605A6DA7
:103E080032B1116821F480711160D3E91621516033
:103E18000122002083F8252083F82400704710B57C
:103E280090F82530022B03D00423C363012010BD72
:103E380003681A6822F00E021A601A6822F001025A
:103E48001A60826C136823F480731360D0E910132E
:103E580003F01C02012393404B60D0E913325A60EF
:103E6800436D33B11A6822F480721A60D0E91632B1
:103E78005A60012380F82530836B002480F82440A1
:103E880013B198472046D2E71846D0E770B4426C81
:103E9800046C036826681D6802F01C020421914026
:103EA80031420FD015F0040F0CD01A6892065EBF8D
:103EB8001A6822F004021A60036B6160002B33D089
:103EC80070BC184702219140314217D015F0020FFB
:103ED80014D01A68940606D41A6822F00A021A60E6
:103EE800012280F82520114A93428CBF104B114BB8
:103EF8005960002380F82430C36ADFE70821914025
:103F0800314211D029070FD5196821F00E01196027
:103F1800012303FA02F26260C36380F825300023AC
:103F280080F82430436BC9E770BC704780000240BA
:103F380000040240000002402DE9F04F524C0023DB
:103F48004FF00F090A6832FA03F501D1BDE8F08F86
:103F5800012505FA03F818EA020200F08E804E687F
:103F6800032706F003054FEA430E07FA0EFC6F1EFF
:103F7800012F6FEA0C0C32D8876807EA0C0ACF6861
:103F880007FA0EF747EA0A078760476827EA08082A
:103F9800C6F300179F4047EA08074760C76807EA63
:103FA8000C088F6807FA0EF747EA0807022DC76062
:103FB80017D14FEAD30800EB880803F0070AD8F8AE
:103FC80020704FEA8A0A09FA0AFB27EA0B0B0F69E5
:103FD80007FA0AF747EA0B07C8F8207001E0032D33
:103FE800DCD1076805FA0EF507EA0C073D4316F41D
:103FF800403F056041D023F0030707F1804707F5EC
:10400800803703F0030CBD684FEA8C0C4FF0070EA5
:104018000EFA0CFEB0F1904F25EA0E0E2FD01B4D74
:10402800A8422ED005F58065A8420CBF02250725B9
:1040380005FA0CF545EA0E05BD602568D74316F468
:10404800801F0CBF3D4015432560656816F4001FAE
:104058000CBF3D4015436560D4F8805016F4803F8E
:104068000CBF3D401543C4F88050D4F88450B603C3
:1040780054BF3D401543C4F88450013362E700251E
:10408800D6E70125D4E700BF00080058000400481F
:104098000AB18161704781627047436901EA03028E
:1040A80021EA030141EA024181617047044AD1686B
:1040B800014208B502D0D060FEF7BAFD08BD00BFC6
:1040C80000080058024A136843F48073136070476D
:1040D80000040058024B186800F4C060704700BF25
:1040E800000400584FF0B0431868C0F340407047D0
:1040F8004FF0B0431868C0F3400070474FF0B0422B
:10410800536823F47F4343EA0023536070474FF01A
:10411800B0431868C0F34060704700007FB54FF0A7
:10412800B0432C4AD3F80831C0F3031003F00F034F
:1041380052F82040284A52F82330B4FBF3F4FFF732
:10414800C9FF264B054693E80700B5F5007F04AB89
:1041580003E9070010D0224B9C4218D303F5B7039C
:1041680003F67F539C4229D903F5741303F51063B2
:104178009C4225D802230BE01A4B9C4207D91A4BC4
:104188009C421BD903F5370303F5D853F0E7002306
:1041980004AA02EB830353F80C4C144D2B6823F04C
:1041A800070323432B60FFF7ABF806462B6803F0A1
:1041B80007039C4206D1002004B070BD0123E7E745
:1041C8000024EAE7FFF79CF8801B0228EED90320B9
:1041D800F2E700BF5CD00008FCCF000880C70008E9
:1041E800C0CF6A00BFEA21013F9334020040005863
:1041F8004FF0B04310B59A68D96812F00C0205D098
:104208000C2A4AD101F00303012B50D14FF0B041E1
:104218002B480B6813F0080306D00B6813F008034B
:1042280037D1D1F8941007E00C68240756BFD1F8AD
:1042380094300968C3F3032350F82330002A0CBFD5
:10424800184600204FF0B0418A6802F00C020C2A90
:104258001ED1CA6802F00302022A2ED0032A06D110
:104268000B68184A13F4801F174B18BF13464FF0FA
:10427800B042D068D168D268C0F306205843C1F371
:1042880002130133B0FBF3F0530F0133B0FBF3F02B
:1042980010BD0B68C3F30313CEE7042A0AD0082A1B
:1042A80005D11B6813F4801304D10748CAE700231B
:1042B8001846C7E703480023C4E7024BD7E700BF07
:1042C8005CD000080024F4000048E80108B5FFF7B6
:1042D8008FFF4FF0B043044A9B68C3F3031352F8AF
:1042E8002330B0FBF3F008BDFCCF00082DE9F04106
:1042F8000446002853D04FF0B0439D68DE68036839
:104308009B0605F00C0506F0030668D5026A1DB188
:104318000C2D46D1012E44D1002A40D04FF0B04395
:10432800A16A1A68170756BFD3F894301B681B098F
:1043380003F0F00399421FD90846FFF7EFFE002863
:104348002DD14FF0B042136843F00803136013688F
:10435800A16A23F0F0030B431360606AFFF7CEFEF7
:10436800FFF7B4FFAB4B1860AB4B1868FEF780FF44
:10437800002834D0BDE8F0814FF0B042136843F014
:1043880008031360136823F0F0030B431360606A9B
:10439800FFF7B4FE0846FFF7C1FE0028E0D0012071
:1043A800E8E74FF0B043002A54D01A6842F00102FF
:1043B8001A60FEF7A5FF0746FFF79AFE002842D0CD
:1043C8004FF0B042136843F0080313601368A16A02
:1043D80023F0F0030B431360606AFFF78FFE236836
:1043E800D80748D42368990700F18C8023681E07F2
:1043F80040F1FA80A3694FF0B046002B00F0E1804D
:10440800D6F89430E16903F01002914200F0C480BC
:1044180003F00302022AC2D0D80740F1B380D6F8CD
:10442800943023F00103C6F89430FEF769FF07467D
:10443800D6F89430990740F1A580FEF761FFC31BB9
:10444800112BF5D904E0FEF75BFFC01B0228B3D996
:1044580003208FE71A6822F001021A60FEF750FF66
:104468000746FFF745FE0028B9D0FEF749FFC01BF5
:104478000228F6D9ECE7082D03D00C2D05D1032E20
:1044880003D16368002BADD189E74FF0B043A16831
:104498001A6822F480120A431A606268B2F5803FF3
:1044A80010D11A6842F480321A60FEF729FF0746D5
:1044B800FFF718FE002895D1FEF722FFC01B6428DD
:1044C800F6D9C5E7B2F5041F04D11A6842F4001200
:1044D8001A60E6E7196821F480311960196821F437
:1044E80000111960002AE0D1FEF70AFF0746FFF71E
:1044F800F9FD00283FF476AFFEF702FFC01B6428E1
:10450800F5D9A5E7042D236903D00C2D0ED1022E71
:104518000CD1002B3FF443AF4FF0B04261695368B0
:1045280023F0FE4343EA016353605FE74FF0B04670
:10453800BBB1336843F480733360FEF7E1FE07468E
:1045480033685A0507D57368626923F0FE4343EA66
:10455800026373604AE7FEF7D3FEC31B022BEFD951
:1045680076E7336823F480733360FEF7C9FE0746A5
:1045780033685B057FF53AAFFEF7C2FEC31B022B1B
:10458800F6D965E74FF0B042E169D2F8943023F0EC
:1045980010030B43C2F894304FF0B047D7F894306B
:1045A80043F00103C7F89430FEF7AAFE0646D7F891
:1045B80094309A0718D4FEF7A3FE831B112BF6D963
:1045C80046E7D6F8943023F00103C6F89430FEF796
:1045D80097FE0746D6F894309B0705D5FEF790FE60
:1045E800C31B112BF6D933E72368580754D50B4F53
:1045F8003B68D90514D4FFF765FDFEF781FE064632
:104608003B68DA050CD4FEF77BFE831B022BF7D937
:104618001EE700BF7800002080000020000400583A
:10462800E3684FF0B046002B58D023F08003052BE9
:1046380002BFD6F8903043F00403C6F890304FF02C
:10464800B046FEF75DFED6F8903043F0010307460A
:10465800C6F8903041F28838D6F890309B0705D4D8
:10466800FEF74EFEC31B4345F6D9F1E6E36823F097
:104678000403812B1BD1FEF743FED6F8903043F09C
:104688008003C6F8903007464FF0B04641F28838AC
:10469800D6F89030180504D5E06A00284AD10020E1
:1046A80068E6FEF72DFEC01B4045F1D9D0E6FEF7BF
:1046B80027FED6F8903023F08003C6F890300746DE
:1046C8004FF0B04641F28838D6F890301905E3D556
:1046D800FEF716FEC01B4045F6D9B9E6FEF710FEF8
:1046E800D6F8903023F080030746C6F8903041F2A0
:1046F8008838D6F890301A0516D4FEF701FED6F899
:10470800903023F00103C6F8903007464FF0B048C8
:1047180041F28836D8F890309B07BDD5FEF7F0FDFA
:10472800C31BB342F6D993E6FEF7EAFDC01B40452A
:10473800DFD98DE60C2D4ED04FF0B04302281A6811
:1047480022F080721A6033D1FEF7DAFD0546FFF7D2
:10475800DEFC38BBD4E90C314FF0B0420B43D068D3
:104768002D4901400B43E16B0B43216C0B43616CFA
:104778000B43A16B43EA0123D360136843F08073B2
:104788001360D36843F08053D360FEF7B9FD044645
:10479800FFF7BDFC002882D1FEF7B2FD001B0A28F6
:1047A800F6D955E6FEF7ACFD401B0A28CFD94FE6EF
:1047B800FEF7A6FD0446FFF7AAFC30B94FF0B04259
:1047C800164BD1680B40D360D4E5FEF799FD001B6A
:1047D8000A28F0D93CE601283FF4CCAD4FF0B043AD
:1047E800226BDB6803F0030191427FF4D8AD616B63
:1047F80003F070028A427FF4D2ADA16B03F4FE424B
:10480800B2EB012F7FF4CBAD626C03F060439342AF
:104818003FF445AFC3E500BF8C80C111FCFFFEEE3D
:104828002DE9F0410D46044610B90120BDE8F0819C
:10483800684E336803F007038B4216D323689A0740
:1048480027D54FF0B047A268BB6823F0F0031343A5
:10485800BB60FEF755FD0646BB68DB0319D4FEF7BF
:104868004FFD831B022BF7D911E0336823F00703B0
:104878000B433360FEF744FD0746336803F0070334
:10488800AB42DBD0FEF73CFDC01B0228F5D9032064
:10489800CCE72368580617D54FF0B0476269D7F8B8
:1048A800083123F00F0343EA1213C7F80831FEF763
:1048B80027FD0646D7F80831D90305D4FEF720FDB1
:1048C800831B022BF6D9E2E723685A0713D54FF06A
:1048D800B047E268BB6823F4E0631343BB60FEF7AC
:1048E8000FFD0646BB689B0305D4FEF709FD831B35
:1048F800022BF7D9CBE72368180714D54FF0B04738
:104908002269BB6823F4605343EAC203BB60FEF725
:10491800F7FC0646BB68590305D4FEF7F1FC831B78
:10492800022BF7D9B3E72368DA070FD4294C236899
:1049380003F00703AB4239D8FFF7C8FC264B1860D1
:10494800264BBDE8F0411868FEF792BC6268022A5F
:104958001DD1FFF7C7FB00283FF467AF4FF0B04603
:1049680041F28838B36823F003031343B360FEF7BA
:10497800C7FC0746B368626803F00C03B3EB820F09
:10498800D4D0FEF7BDFCC01B4045F3D97FE7032A0E
:1049980002D1FFF7BCFBDEE712B9FFF7A9FBDAE7A4
:1049A8004FF0B0431B685B05D8D43EE7236823F07B
:1049B80007032B432360FEF7A3FC0646236803F096
:1049C8000703AB42B8D0FEF79BFC801B0228F5D941
:1049D8005DE700BF004000587800002080000020FC
:1049E80008B5FFF773FC4FF0B043044A9B68C3F364
:1049F800022352F82330D84008BD00BF3CD000083D
:104A080008B5FFF763FC4FF0B043044A9B68C3F353
:104A1800C22352F82330D84008BD00BF3CD000085C
:104A28004FF0B043D3F89000C0F3400070474FF008
:104A3800B0410209D1F8883002F47F22000123EA4C
:104A4800020300F47F200343C1F8883070474FF019
:104A5800B041020CD1F88830120423EA020343EA79
:104A68000040C1F88800704770B5066816F48036B3
:104A7800044638D0FFF726FBFEF742FC614E054698
:104A88003368DB0529D54FF0B043616BD3F890202C
:104A980002F44072914214D0D3F89010D3F89020C9
:104AA80042F48032C3F89020D3F8902021F440706B
:104AB80022F480328D07C3F89020C3F8900000F1EB
:104AC80090804FF0B042616BD2F8903023F440737D
:104AD8000B43C2F89030002605E0FEF711FC401B9E
:104AE8000228CDD903262568E8070AD54FF0B0413A
:104AF8006268D1F8883023EA124392B21343C1F8AE
:104B08008830A9070AD54FF0B041A268D1F888309B
:104B180023EA124392B21343C1F88830AA0609D592
:104B28004FF0B0422169D2F8883023F440630B4338
:104B3800C2F88830AB0502D5206AFFF788FF680500
:104B480002D5606AFFF783FF290502D5A06AFFF73F
:104B58007EFF6A0602D56069FFF769FF2B0602D55A
:104B6800A069FFF764FFE80502D5E069FFF75FFF7A
:104B7800E90610D54FF0B042E168D2F8883023F446
:104B880040730B43C2F88830B1F5807F02BFD36809
:104B980043F08073D3602A040ED54FF0B042216BE6
:104BA800D2F8883023F040430B43C2F8883019B953
:104BB800D36843F08073D3606B0410D54FF0B042D4
:104BC800E16AD2F8883023F040530B43B1F1005F1B
:104BD800C2F8883003D1D36843F48033D3603046B9
:104BE80070BDFEF78DFB41F288360546FFF718FFCA
:104BF80001283FF466AFFEF783FB401BB042F5D9AE
:104C080070E700BF0004005838B50A4CE36823F089
:104C18002003E360FEF774FB0546E3689B0601D5B5
:104C2800002038BDFEF76CFB401BB0F57A7FF4D945
:104C38000320F6E7002800402DE9F041114DEC680B
:104C480014F0400407461AD1EB6843F08003EB6088
:104C5800FEF756FB4FF003080646EB685B0601D4E7
:104C6800032C02D12046BDE8F081FEF749FB801BEA
:104C7800B0F57A7F84BF87F82D800324EDE7002400
:104C8800F0E700BF0028004038B50F4CE36823F078
:104C98008003E360A3699B06054606D4FFF7B4FFCB
:104CA80010B1032085F82D0038BDA36923F0200337
:104CB800A361FFF7A9FF10B1032085F82D00A369B0
:104CC80043F02003A361EFE70028004038B504460D
:104CD80000284BD090F82D3003F0FF021BB980F864
:104CE8002C20FEF7A3F80223214D84F82D30EB6821
:104CF800DB0632D4CA236B6253236B622046FFF76C
:104D08009BFF78BBAB6923F08E6323F04003AB6154
:104D180021696368AA690B431343A2691343AB6112
:104D2800D4E9022343EA02432B61D4E90931EA6852
:104D38000B4322F4F8521343EB602046FFF7A4FF1D
:104D480080B9D4E90713AA690B4322F060421343E0
:104D580062691343AB61FF236B62012384F82D3032
:104D6800002002E0024BFF225A6238BD0120FCE716
:104D7800002800400023092803D840EA0310C0B2E5
:104D880070470A380133C0B2F5E700002DE9F04159
:104D980090F82C30012B05460E4690464FF0020342
:104DA80059D02E4F80F82D300122CA2380F82C20AC
:104DB8007B6253237B62FFF73FFF88BBFB6803F4EA
:104DC8004073B3F5807F2BD030787478B178BB69A5
:104DD800B8F1000F33D113F0400308BFF370FFF7A9
:104DE800C9FF07462046FFF7C5FF02460846FFF7FA
:104DF800C1FFF37840EA835343EA074343EA0223B7
:104E0800164A03F07F3323F0FE431360936923F4BB
:104E180080239361D6E90330916903430B4393617F
:104E28002846FFF731FF0D4BFF225A6210B90123C4
:104E380085F82D30002385F82C30BDE8F08113F07B
:104E4800400308BFF3702402F27844EA00430B439E
:104E580043EA8253D4E71846EFE700BF0028004032
:104E6800F8B590F82C30012B05464FF002003AD0E7
:104E7800012385F82C3085F82D000C78C8784E78F9
:104E88008F78640382BBF30603D526F010060A3632
:104E98004E70FFF76FFF06464878FFF76BFF024634
:104EA8003846FFF767FF40EA040343EA064343EA4C
:104EB8000224104ECA237362532373622846FFF7F5
:104EC800BBFE38B924F07F4424F0C004746028463F
:104ED800FFF7DAFEFF23736210B9012385F82D303E
:104EE800002385F82C30F8BD44EA00443C4344EAEA
:104EF8000624DEE700280040030903EB830300F0E3
:104F08000F0000EB4300C0B27047000038B5144BE7
:104F180098684860D86800F44070B0F5807F1CD06D
:104F28001869C0F30E0088601B68C3F30540C3F31B
:104F3800062503F07F04C3F3805308704D708C700E
:104F4800CB7052B9FFF7D8FF08702846FFF7D4FF97
:104F580048702046FFF7D0FF8870002038BD00BF9A
:104F68000028004038B50E4B5B68C3F30740C3F315
:104F7800042503F03F04C3F34233C8704D708C70AE
:104F88000B7052B9FFF7B8FFC8702846FFF7B4FF97
:104F980048702046FFF7B0FF8870002038BD00BF7A
:104FA80000280040F8B590F82C30012B04464FF04B
:104FB80002002CD0164D84F82D00012384F82C30E3
:104FC800CA236B6253236B62AB6923F48843AB61DA
:104FD800FEF796F90746EE6816F004060AD0042391
:104FE800EB65FF236B620020012384F82D3084F8E1
:104FF8002C000CE0FEF784F9C01BB0F57A7FEAD9E3
:10500800FF2303206B6284F82D0084F82C60F8BD20
:10501800002800402DE9F3471F468946904604467C
:10502800FEF76EF90A9D3D442D1AFEF769F9264BE5
:105038001E68C6F3CB366E43824601962268936893
:1050480039EA03030CBF01230023434501D10020A3
:105058002EE07B1CF3D0FEF753F9A0EB0A00A84220
:1050680029D323685A6822F0E0025A606268B2F5D0
:10507800827F0AD1A268B2F5004F02D0B2F5806FE4
:1050880003D11A6822F040021A60A26AB2F5005FE2
:1050980007D11A6822F400521A601A6842F40052C2
:1050A8001A60012384F85D30002384F85C30032003
:1050B80002B0BDE8F087019B002B019B03F1FF3391
:1050C80008BF00250193B9E7780000202DE9F74FC4
:1050D800994600238DF80330044688461746FEF7A4
:1050E8000FF90C9D4D442D1AFEF70AF92C4BD4F8F4
:1050F80000B01E6823235E43360D6E438246019638
:105108002268936803EA0803BB4201D100203AE011
:10511800B8F5C06F07D137B99BF80C30DBB28DF802
:1051280003309DF80330B9F1FF3FEAD0FEF7E8F805
:10513800A0EB0A00A84229D323685A6822F0E002AB
:105148005A606268B2F5827F0AD1A268B2F5004F50
:1051580002D0B2F5806F03D11A6822F040021A60BB
:10516800A26AB2F5005F07D11A6822F400521A60E9
:105178001A6842F400521A60012384F85D30002353
:1051880084F85C30032003B0BDE8F08F019B002B4E
:10519800019B03F1FF3308BF00250193B0E700BF6F
:1051A8007800002073B50B4600920D4616464FF462
:1051B800C05100220446FFF789FF024628B1236E3A
:1051C80043F020032366032011E000962B4680213C
:1051D8002046FFF71FFF02460028F0D100962B4615
:1051E8004FF4C0612046FFF771FF0028E7D102B0F5
:1051F80070BDF8B5044600287AD0436A002B4FD119
:105208004268B2F5827F00D0C36194F85D3003F044
:10521800FF0223B984F85C202046FDF75BFE226874
:10522800E168022384F85D301368B1F5E06F23F07C
:10523800400313604FF000035CD84FF4805500D052
:10524800A3626368A768A069A66A07F4044703F421
:1052580082733B43276907F002073B43676907F0FE
:1052680001073B4300F400773B43E76907F0380741
:105278003B43276A07F080073B4306F400573B434C
:10528800B6F5005F136011D1236B73BBB1F5E06F06
:105298000AD902232363136843F40063136005E00B
:1052A8000023C0E90433B0E701232363636A676B13
:1052B80003F0100307F008073B4301F47061000C8A
:1052C80000F004000B4303432B43B6F5005F536023
:1052D80004BFA38D1361D36923F40063D361002055
:1052E8000123206684F85D30F8BD022BDED1D2E7B9
:1052F8000120F9E71D46B1F5706FA0E72DE9F743E6
:105308001F4690F85C30012B04460D46904600F08D
:10531800C980012380F85C30FDF7F2FF94F85D3016
:10532800012B8146D8B240F0BB80002D79D0B8F16E
:10533800000F76D0032384F85D3000232366C4E988
:105348001333A4F83E802364A4F84430A4F846300C
:10535800A3682668A563B3F5004FA4F83C8007D17D
:10536800336823F040033360336843F48043336089
:10537800A36AB3F5005F07D1336823F400533360A1
:10538800336843F4005333603368E2685B065EBFFA
:10539800336843F040033360B2F5E06F636849D97E
:1053A80013B1B8F1010F07D135F8023BF360A563DB
:1053B800E38F013B9BB2E387E38F9BB2F3B9A36A08
:1053C800B3F5005F04D12268136843F48053136077
:1053D8004A4639462046FFF7E5FE08B120232366F2
:1053E800A36833B901932368DA6801929B68019333
:1053F800019B206E003818BF012012E022689368D4
:105408009D0705D5A36B33F8021BD160A363CFE7D3
:10541800FDF776FFA0EB0900B842CDD3781CCBD0BE
:105428000320012384F85D30002384F85C3003B046
:10543800BDE8F08313B1B8F1010F13D1E38F9BB22C
:10544800012B06D935F8023BF360A563E38F023BD5
:1054580006E02B783373A36B0133A363E38F013B1F
:105468009BB2E387E38F9BB2002BA8D02268936896
:1054780099070CD5E18FA36B89B2012904D933F8B8
:10548800021BD160A363E1E71B781373E3E7FDF721
:1054980037FFA0EB0900B842E4D37B1CE2D0BFE79A
:1054A8000220BEE70220C2E72DE9FF479946002304
:1054B80003938DF80B3090F85C300C9F012B044659
:1054C8000E46924600F0B081012380F85C30FDF76B
:1054D80017FF94F85D30D4E90052012B80465FFA3B
:1054E80083FC286869680BD0B2F5827F40F09A8106
:1054F800A368002B40F09681BCF1040F40F0928124
:10550800002E00F07281BAF1000F00F06E81B9F13F
:10551800000F00F06A8194F85D30C4F840A0042BB5
:105528001CBF052384F85D3000232366C4E91333C8
:10553800A36AA4F84690B3F5005FA4F84490A66364
:10554800A4F83E90A4F83C9007D12B6823F40053AC
:105558002B602B6843F400532B60D4F80CC06B68A5
:10556800BCF5E06F02D8B9F1010F3AD023F48053AB
:105578006B602B685B065EBF2B6843F040032B60B3
:10558800BCF5E06F7FD912B1B9F1010F07D136F838
:10559800023BEB60E38FA663013B9BB2E3874FF0CE
:1055A800010900F0040601F00805E38F9BB2DBB99E
:1055B800B4F846309BB2BBB9A36AB3F5005F40F0BC
:1055C800FD800122CDF800803B4611462046FFF7BA
:1055D80021FD002800F0EA80236E43F002032366D1
:1055E8002AE043F48053C3E723689A68900707D5F5
:1055F800E28F92B222B1B9F1000F28D14FF0000921
:10560800996811F001010FD0B4F8462092B25AB14E
:10561800DA68236C23F8022B2364B4F84630013B84
:105628009BB2A4F846308946FDF76AFEA0EB080055
:10563800B842BAD3791CB8D00325012384F85D3069
:10564800002384F85C30284604B0BDE8F087A26BDC
:1056580032F8021BD960A263E28F013A92B2E28764
:10566800E28F92B2002AC9D1A26AB2F5005FC5D111
:1056780026B91DB11A6842F400721A601A6842F419
:1056880080521A60BAE712B1B9F1010F0BD1E38F5A
:105698009BB2012B4BD936F8023BEB60E38FA66334
:1056A800023B9BB2E387012500F0040601F00809DC
:1056B800E38F9BB22BB9B4F846309BB2002B3FF472
:1056C8007BAF21688B689A0705D5E38F9BB213B12E
:1056D800002D34D1002521688B6813F001031DD0FB
:1056E800B4F8462092B2CAB1B4F84600226C80B22F
:1056F80001284FD9C86822F8020B2264B4F8462062
:10570800023A92B2A4F84620B4F8462092B2012A8E
:1057180003D84A6842F480524A601D46FDF7F0FDFE
:10572800A0EB0800B842C3D37B1CC1D084E7337810
:105738002B73A36B0133A363E38F013BB1E7E28FC4
:10574800A36B92B2012A1DD933F8022BCA60A36356
:10575800E38F023B9BB2E387E28F236892B2002A71
:10576800B8D1A26AB2F5005FB4D136B9B9F1000F69
:1057780003D01A6842F400721A601A6842F4805220
:105788001A60A7E71B780B73A36B0133A363E38F3E
:10579800013BDFE7097B1170226C01322264B4F807
:1057A8004620013A92B2A4F84620B6E7E368256895
:1057B800B3F5706F1BD1EB680393039B2268956860
:1057C80015F0100507D0236E43F0020323664FF649
:1057D800EF7393600125424639462046FFF7E2FC05
:1057E80000283FF42AAF20232366012525E72B7BD9
:1057F800DBB28DF80B309DF80B30236B022BDDD11B
:105808000122CDF800803B4611462046FFF702FCF6
:1058180000287FF4E1AE2B7BDBB28DF80B309DF8CE
:105828000B30CBE7022508E702250CE790F83D305E
:10583800012B17D102230C4A80F83D3003689342AC
:1058480002D0B3F1804F07D19968084A0A40062A66
:1058580006D0B2F5803F03D01A6842F001021A6000
:105868000020704701207047002C0140070001000C
:105878000368196A41F21112114208D1196A40F2FB
:105888004442114202BF1A6822F001021A60012341
:1058980080F83D3000207047704770477047704768
:1058A800704703681A69910710B504460FD5DA687E
:1058B80092070CD56FF002021A61012202779B69E8
:1058C800990700F08580FFF7E9FF00232377236815
:1058D8001A69520710D5DA6850070DD56FF004021F
:1058E8001A61022222779B6913F4407F204675D003
:1058F800FFF7D4FF0023237723681A6911070FD510
:10590800DA6812070CD56FF008021A6104222277B0
:10591800DB699B07204667D0FFF7C0FF002323778A
:1059280023681A69D00610D5DA68D1060DD56FF04C
:1059380010021A6108222277DB6913F4407F20469F
:1059480058D0FFF7ABFF0023237723681A69D207E3
:1059580008D5DA68D00705D56FF001021A6120462C
:10596800FFF79AFF23681A69110608D5DA68120644
:1059780005D56FF080021A61204600F086F9236889
:105988001A69D00508D5DA68110605D56FF4807252
:105998001A61204600F07AF923681A69520608D578
:1059A800DA68500605D56FF040021A612046FFF705
:1059B80077FF23681A69910622D5DA6892061FD5FF
:1059C8006FF0200220461A61BDE8104000F05CB973
:1059D800FFF763FF2046FFF762FF76E7FFF75DFFFB
:1059E8002046FFF75CFF85E7FFF757FF2046FFF7E4
:1059F80056FF93E7FFF751FF2046FFF750FFA2E756
:105A080010BD00001A4A0368904210B502D0B0F1E8
:105A1800804F09D14C6823F07003904243EA040395
:105A280009D0B0F1804F06D0124A904203D002F557
:105A38008062904203D1CA6823F4407313434A69D1
:105A480023F08003134303608B68C3620B6883628F
:105A5800074B984207D003F5C053984203D003F58B
:105A68008063984201D10B6903630123436110BD30
:105A7800002C01400044014010B5044650B390F892
:105A88003D3003F0FF021BB980F83C20FDF704FB12
:105A98000223206884F83D30211DFFF7B3FF01235E
:105AA80084F84830002084F83E3084F83F3084F889
:105AB800403084F8413084F8423084F8433084F828
:105AC800443084F8453084F8463084F8473084F808
